:10000000BAC099C1A9C1D2C0D1C0D0C0CFC0CEC0E2
:1000100041C2FFC1CBC045C1C9C0C8C0C7C0C6C06E
:10002000C5C0C4C0C3C06E616E00696E6600636403
:10003000696E6F70737578585B65666745464700F3
:10004000616E006E66696E69747900CDCCCC3D0A34
:10005000D7233C17B7D13877CC2B329595E6241FA0
:10006000B14F0A000020410000C84200401C462059
:10007000BCBE4CCA1B0E5AAEC59D7400407A10F32C
:100080005A00A0724E18090010A5D4E80000E876C6
:1000900048170000E40B54020000CA9A3B0000001D
:1000A000E1F505000080969800000040420F000036
:1000B00000A08601000000102700000000E80300F7
:1000C0000000006400000000000A000000000001C1
:1000D00000000000002C76D888DC674F0823DFC1C1
:1000E000DFAE59E1B1B796E5E3E453C63AE651997C
:1000F0007696E8E6C28426EB898C9B62ED407C6FA5
:10010000FCEFBC9C9F40F2BAA56FA5F490055A2A5B
:10011000F75C936B6CF9676DC11BFCE0E40D47FE67
:10012000F520E6B500D0ED902E030094357705005C
:1001300080841E080000204E0A000000C80C3333E3
:1001400033330F986E12831141EF8D2114893BE6F2
:100150005516CFFEE6DB18D1844B381BF77C1D907B
:100160001DA4BBE424203284725E228100C9F124E4
:10017000ECA1E53D270011241FBECFE5D4E0DEBF92
:10018000CDBF10E0A0E6B0E0EEE5FAE102C00590D8
:100190000D92A237B107D9F710E0A2E7B0E001C095
:1001A0001D92AC3AB107E1F74FD057CC29CF8FE27F
:1001B00089B910BC88E18AB908955F9BFECF8CB1E4
:1001C00008955D9BFECF8CB90895579A089557986E
:1001D000089585B7866085BF8BB7806C8BBF089507
:1001E0008EB5887F8EBD89B7846089BF1CBC1DBC5D
:1001F00083B7876083BF89B7816089BF8FEF82BF74
:10020000089580E090E0FC01E456FF4F10820196D3
:100210008F309105C1F780E090E0FC01EA57FF4F75
:100220001082019685319105C1F7089584990BC01C
:10023000AD9A80E892E020E731E0F9013197F1F7DB
:100240000197D9F7AD9808958FEF88BB87BB15BA92
:1002500084BB8CE182BB82E081BB80E197E220E736
:1002600031E0F9013197F1F70197D9F7CADF8FE251
:1002700089B910BC88E18AB9579A85B7866085BF6D
:100280008BB7806C8BBFACDFAC9A88E99AE320E730
:1002900031E0F9013197F1F70197D9F7AC987894EB
:1002A000FFCF1F920F920FB60F9211242F933F93FF
:1002B0004F935F936F937F938F939F93AF93BF936E
:1002C000EF93FF938CB180937400809174008A3017
:1002D00071F0E0917200F0E080917400EA58FF4FF5
:1002E0008083809172008F5F8093720013C01092A0
:1002F000720080917600823569F4809177008934AC
:1003000049F4809178008E3429F480917900873403
:1003100009F48CDFFF91EF91BF91AF919F918F9185
:100320007F916F915F914F913F912F910F900FBEF1
:100330000F901F9018951F920F920FB60F921124D5
:100340008F93809175008F5F809375008F910F90D0
:100350000FBE0F901F9018951F920F920FB60F921D
:1003600011242F933F936F937F938F939F93EF93DA
:10037000FF9384EF91E020E731E0F9013197F1F745
:100380000197D9F7839B16C0E0917300F0E080914C
:1003900075006AE00CD9905DE456FF4F9083809120
:1003A00073008F5F809373001CBC1DBC8EB585608D
:1003B0008EBD02C010927500FF91EF919F918F91B9
:1003C0007F916F913F912F910F900FBE0F901F90D3
:1003D00018955498DC010D900020E9F7A81BB90B83
:1003E000129720E007C0E80FF91F30815D9BFECF18
:1003F0003CB92F5FE22FF0E0AE17BF07A0F75D9B7F
:10040000FECF8DE08CB95D9BFECF8AE08CB9549A0B
:1004100008951F920F920FB60F9211242F933F93BE
:100420004F935F936F937F938F939F93AF93BF93FC
:10043000EF93FF9384EF91E020E731E0F9013197EA
:10044000F1F70197D9F7849B09C080E690E0C1DFFE
:10045000D8DE1092730083B78E7F08C084E690E0E8
:10046000B8DFCFDE1092730083B7816083BF8FEF58
:1004700082BFFF91EF91BF91AF919F918F917F913B
:100480006F915F914F913F912F910F900FBE0F9001
:100490001F9018951F920F920FB60F9211240F9371
:1004A0001F932F933F934F935F936F937F938F93FC
:1004B0009F93AF93BF93EF93FF9354988EB58A7F2A
:1004C0008EBD10927300849B22C000D000D000D05B
:1004D000EDB7FEB7319606E810E0ADB7BEB712969D
:1004E0001C930E93119788E690E0938382838CE9A6
:1004F00090E09583848315DA8DB79EB706960FB684
:10050000F8949EBF0FBE8DBFC80163DF7ADE1CBCAE
:100510001DBCFF91EF91BF91AF919F918F917F9102
:100520006F915F914F913F912F911F910F910F907C
:100530000FBE0F901F901895A1E1B0E0E1EAF2E044
:1005400042C83C017F876E876A01FC0117821682D0
:10055000838181FD03C06FEF7FEF52C39E012F5F48
:100560003F4F398B288BF3012381EE85FF8523FDD7
:10057000859123FF8191FF87EE87882309F43DC38E
:10058000853251F4EE85FF8523FD859123FF81910E
:10059000FF87EE87853221F490E0B30196D9E3CF4F
:1005A000982F10E0882499241032B0F49B3269F01F
:1005B0009C3228F4903251F0933271F40BC09D328A
:1005C00039F0903349F4116028C01260146025C0DE
:1005D000186023C0106121C017FD2AC0892F8053E5
:1005E0008A3078F416FF06C0FAE09F9E902C112402
:1005F000980E13C03AE0839E802C1124880E10625E
:100600000CC09E3221F416FDF8C2106406C09C3660
:1006100011F4106802C0983659F4EE85FF8523FD69
:10062000959123FF9191FF87EE87992309F0BCCF25
:10063000892F8554833020F4812F8061905E07C01C
:10064000892F8556833008F08FC1812F8F7E86FDDC
:1006500002C076E0972E6FE3F62EF822953619F455
:10066000F0E4FF2A07C0963619F420E8F22A02C007
:1006700091109A94F7FE0AC03BE3391518F45CE335
:10068000B52E02C0B92CB39427E009C047E0491544
:1006900020F4BB2447E0942EF7CF292DBB24C601BC
:1006A00004969D878C87F601608171818281938198
:1006B000AE014F5F5F4F0B2DBDD76C010981202E1E
:1006C000332400FF04C003FD02C01DE209C0F1FE97
:1006D00002C01BE205C0F2FC02C010E001C010E243
:1006E000C1018C709070892BA1F1112311F483E06A
:1006F00001C084E0881510F0882409C0881AF3FC32
:1007000006C080E290E0B301E0D88A94D1F71123CB
:1007100021F0812F90E0B301D8D823FE03C006E278
:1007200010E00DC00AE210E00AC0E114F10409F083
:10073000805290E0B301C9D80F5F1F4F05C0EF2C66
:10074000FF24F0E1EF22FF24F8018491882369F768
:1007500008C1F7FE12C0BC0C24FE04C08A8181339C
:1007600009F4BA941B141CF0BB24B3942DC0F8E018
:10077000FB1550F538E0B32E27C0F6FC25C0892DB7
:1007800090E08C159D054CF02CEFC2162FEFD20691
:1007900024F030E8F32A01C09A94992049F0E2E06D
:1007A000F0E0EC0FFD1FE90DF11D80818033A1F316
:1007B000F7FE0AC0B92CB394892D90E0C816D9066B
:1007C00014F0992401C09C18F7FC03C025E030E028
:1007D00009C01C141D041CF021E030E003C0960188
:1007E0002F5F3F4F112311F02F5F3F4F992029F0CA
:1007F000892D90E00196280F391F882D90E0281749
:10080000390714F0882401C0821A4F2C5524C201E4
:1008100089709070892B31F007C080E290E0B301BD
:1008200054D88A948820C9F7112321F0812F90E0B1
:10083000B3014BD843FE06C007C080E390E0B3018C
:1008400044D88A948820C9F7F7FE44C08601D7FEB1
:1008500002C000E010E076010894E11CF11CE01AEF
:10086000F10A41E050E04C0F5D1FE40EF51E260139
:100870004B185108892D90E0AA24BB24A81AB90A64
:100880005FEF0F3F150721F48EE290E0B3011DD812
:10089000C016D10634F0401651061CF4F7018081D1
:1008A00001C080E3015010400894E11CF11C0A15BE
:1008B0001B0524F090E0B30108D8E2CF0C151D050C
:1008C00039F49A81963318F4953311F424FE81E3B8
:1008D00090E045C08A81813309F00F7E90E0B3013A
:1008E000F4D7992091F08EE290E0B301EED712E0B8
:1008F000E1E0F0E0EC0FFD1FE10FF11D1F5F8081D3
:1009000090E0B301E2D79A9499F744FC03C085E6DE
:1009100090E002C085E490E0B301D7D7D7FC05C0D2
:10092000C114D10441F404FF06C0D094C194D1088D
:10093000D3948DE201C08BE290E0B301C6D780E38F
:1009400005C08F5F26EF3FEFC20ED31E3AE0C316FD
:10095000D104BCF790E0B301B8D7C601C096B3018B
:10096000B4D7CC84DD8446C1933631F0933799F007
:10097000933509F055C022C0F601808189835E015C
:100980000894A11CB11C22E030E0C20ED31E21E06D
:10099000E22EF12C11C0F601A080B18016FD03C03B
:1009A0006FEF7FEF02C0692D70E022E030E0C20EF1
:1009B000D31EC5013DD77C011F7712C0F601A08070
:1009C000B18016FD03C06FEF7FEF02C0692D70E0AC
:1009D00022E030E0C20ED31EC5011FD77C01106893
:1009E00013FF06C019C080E290E0B3016ED78A946D
:1009F000882D90E0E816F906B0F30EC0F50117FD5A
:100A0000859117FF81915F0190E0B3015ED781105E
:100A10008A940894E108F108E114F10479F7EAC036
:100A2000943611F0993681F517FF08C0F601208140
:100A300031814281538184E090E00AC0F6018081D7
:100A400091819C01442737FD4095542F82E090E02E
:100A5000C80ED91E9FE6F92EF12257FF09C0509506
:100A60004095309521953F4F4F4F5F4F90E8F92AC1
:100A7000CA01B901AE014F5F5F4F2AE030E08CD769
:100A8000E82EE889EE1A40C0953721F41F7E2AE04F
:100A900030E01CC0197F9F3661F0903720F4983504
:100AA00009F0ABC00FC0903739F0983709F0A5C0F6
:100AB00004C028E030E00AC0106114FD146020E199
:100AC00030E004C014FD166020E132E017FF08C0DA
:100AD000F601608171818281938144E050E008C019
:100AE000F60180819181BC0180E090E042E050E01D
:100AF000C40ED51EAE014F5F5F4F4ED7E82E58890A
:100B0000E51A8FE7F82EF122F6FE0BC08EEFF822E1
:100B1000E91438F4F4FE07C0F2FC05C09FEEF92298
:100B200002C01E2D01C0192DF4FE0DC0FE01EE0DF8
:100B3000F11D8081803319F4E9EEFE2208C01F5FA9
:100B4000F2FE05C003C08F2D867809F01F5F0F2DC0
:100B5000F3FC13C0F0FE0EC0181510F09E2C0AC056
:100B60009E2C980C911A182D05C080E290E0B301DC
:100B7000ACD61F5F1815C8F304C0181510F4811AFD
:100B800001C0882404FF0EC080E390E0B3019DD62D
:100B900002FF1BC001FD03C088E790E00EC088E59E
:100BA00090E00BC0802F867881F001FF02C08BE2BD
:100BB00001C080E2F7FC8DE290E0B30186D605C06B
:100BC00080E390E0B30181D69A94E914C8F3EA94E3
:100BD000E1E0F0E0EC0FFD1FEE0DF11D808190E0F3
:100BE000B30173D6EE2099F705C080E290E0B3011F
:100BF0006CD68A948820C9F7B6CCF30166817781D8
:100C0000CB016196E2E1FBC4FC0120FD08C023FD9D
:100C100005C022FF02C0738362835183408308951D
:100C2000EF92FF920F931F9344FF02C033E011C075
:100C300046FF02C034E00DC0DB01FC01AA0FBB1F60
:100C4000EE1FFF1F1094D1F76A0F7B1F8E1F9F1F8F
:100C500031E0660F771F881F991F3150D1F77B0154
:100C60008C01E20EF11C011D111DA8019701B701B5
:100C7000CA011F910F91FF90EF9008950F931F935A
:100C8000CF93DF938C01C801DED5EC0197FD06C040
:100C9000A9D5892BC1F7CE01B80164D6CE01DF9169
:100CA000CF911F910F9108958F929F92AF92BF9213
:100CB000DF92EF92FF920F931F93CF93DF935C012C
:100CC000EB014A01122FBFD5AC018B3219F08D32E6
:100CD00049F41068219709F466C0C501B4D5AC0188
:100CE00097FD61C06DEFD62ED1228D2D8073F1F46A
:100CF0004033E1F4219709F442C0C501A4D5AC0109
:100D000097FD3DC082E0D82A483711F0483551F4AC
:100D100080E4D82A219799F1C50195D5AC01992392
:100D20002CF42DC0D6FC02C080E1D82AEE24FF248A
:100D30008701242F2053283080F0D4FC09C02A30AA
:100D400060F0D6FE05C02F7D822F8151863020F0C5
:100D5000CA01B50107D610C02750C801B7014D2DF3
:100D60005FDF7B018C0182E0D82A219759F0C50111
:100D70006AD5AC0197FFDDCFD1FC04C014C0EE24CE
:100D8000FF248701D7FE08C010950095F094E094E9
:100D9000E11CF11C011D111DC401B801A7012D2D7D
:100DA00033DF81E001C080E0DF91CF911F910F918F
:100DB000FF90EF90DF90BF90AF909F908F9008953D
:100DC000A0E2B0E0E5EEF6E002C45C016B018A014E
:100DD0007901FE01319680E2DF011D928A95E9F7E3
:100DE00070E030E060E040E050E03F01A1E0B0E0C2
:100DF000F5018381F70183FD259183FF21917F0117
:100E0000222309F47FC02E3519F44115510569F1EB
:100E1000872F90E08417950744F42D3551F12D323A
:100E200021F4332329F431E021C0332309F4622F64
:100E3000322F832F869586958695F301E80FF11D55
:100E4000832F87704D0102C0880C991C8A95E2F7A8
:100E5000208128292083361711F430E007C0361787
:100E600010F43F5FE6CF3150E4CF71E04F5F5F4F4A
:100E7000BFCF332319F08E8180628E83772359F0A0
:100E8000FE0131969E012F5D3F4F808180958193B9
:100E9000E217F307D1F7992493943E010894611C5B
:100EA000711CC501D0D4AC0197FD24C086958695F0
:100EB0008695F301E80FF11D808190E09A0127707B
:100EC000307002C0959587952A95E2F780FD04C0A1
:100ED000CA01B50147D50EC00115110519F0D80199
:100EE0004D938D010894C108D1089924C114D104EF
:100EF000C1F602C0992031F40115110529F0F8015D
:100F0000108202C0EE24FF24C701A096EEE07BC34E
:100F10002F923F925F926F927F928F929F92AF92A9
:100F2000BF92CF92DF92EF92FF920F931F93CF93D6
:100F3000DF933C017B011A0186D4EC018B3239F03E
:100F40008D3211F0552410C0B0E85B2E01C055243D
:100F50000894E108F108E114F10409F40AC1C3019D
:100F600072D4EC0197FD05C1CE0144D489369105B8
:100F700021F08E36910581F51AC003E410E019C006
:100F80000894E108F108E114F10459F0C3015BD4BD
:100F9000EC0197FD06C02ED4D81659F0CE01B3014E
:100FA000E1D420E00634120709F0E3C008C000E4F1
:100FB00010E0F8010F5F1F4FD490DD2009F70354B4
:100FC000104029F080E090E0A0E8BFE7C6C080E0D4
:100FD00090E0A0ECBFE7C1C0CC24DD248824992494
:100FE0005401AE014053242F4A3030F552E0552AC7
:100FF000852D90E0AC014870507052FE06C0452B24
:1010000009F50894C11CD11C1DC0452B19F008948A
:10101000C108D108C501B40140E202DE4B015C0108
:1010200088E9881689E9980689E9A80689E1B80659
:1010300048F094E0592A06C04E3F79F453FC0DC0A5
:10104000E8E05E2A0894E108F108E114F10429F0CF
:10105000C301F9D3EC0197FFC4CF51FE8AC0C53656
:1010600019F0C53409F042C00894E108F108E11410
:10107000F10409F47EC0C301E6D3EC0197FD79C009
:101080008B3221F08D3261F4F0E15F2A0894E1089F
:10109000F108E114F10409F46CC0C301D4D3EC01EC
:1010A000CE01C0970A9708F064C000E010E0B801D4
:1010B000882777FD8095982FAE014053242F40E27A
:1010C000AFDD8B010894E108F108E114F10431F07F
:1010D000C301B9D3EC01C0970A9748F3B80154FE95
:1010E00003C0709561957F4FC60ED71EEF2829F07B
:1010F000D7FD03C0CE01B30135D4C501B40166D11B
:10110000D7FE0DC0AFE5EA2EA0E0FA2ED094C19430
:10111000D108D394C0E2D0E000E010E00DC0F7E7C2
:10112000EF2EF0E0FF2EF6CFF70125913591459196
:10113000549189D1CC1ADD0ACC16DD06A8F7D695D4
:10114000C7950F5F1F4F0630110529F0ECEFFFEF39
:10115000EE0EFF1EF1CFDC01CB0157FCB05821147D
:10116000310429F0F10180839183A283B38381E06C
:1011700001C080E0DF91CF911F910F91FF90EF9020
:10118000DF90CF90BF90AF909F908F907F906F90A7
:101190005F903F902F900895A0E0B0E0E1EDF8E07F
:1011A00015C24C015B013A01FC01178216825524DD
:1011B000F5C0812F90E016D3892B19F0C4015EDDB4
:1011C000EDC0153249F4F501F3FC6591F3FE619130
:1011D0005F01653259F415E2C40135D397FDEAC0C9
:1011E000181709F4DBC0B401BDD3E9C06A3219F0A5
:1011F000162F00E006C0F3FC1591F3FE11915F017C
:1012000001E0CC24DD240DC00260B60180E090E056
:1012100040E206DD6B01F501F3FC1591F3FE11913F
:101220005F01212F20532A3078F301FD04C0CC2424
:10123000CA94DC2C04C0C114D10409F4C0C018360F
:1012400021F01C3699F4F5010BC0F501F3FC659112
:10125000F3FE6191683619F05F01162F07C0086030
:101260000460F3FC1591F3FE11915F01112309F461
:10127000A6C08EE290E0612F70E0C4D2892B09F401
:101280009EC0802F00FF03C0EE24FF2407C0F3019F
:10129000E080F18022E030E0620E731E1E3649F4D9
:1012A000F4014681578160E070E0C701202FACDC7B
:1012B00075C01336B1F481FD03C081E0C82ED12C76
:1012C000C401C1D297FD76C0E114F10419F0F70111
:1012D00081937F010894C108D108C114D10481F71A
:1012E0005BC01B3551F4C401B601A701950168DD4F
:1012F0005C01009709F050C04AC0C401BFDC97FDF3
:1013000059C01F36B9F1103738F4143689F119363F
:1013100091F11835B1F52AC0133751F0143718F48C
:10132000103779F523C0153719F1183751F51EC05C
:10133000C40189D2EC0197FD13C054D2892B21F04E
:10134000CE01B4010FD30CC0E114F10419F0F70180
:10135000C1937F010894C108D108C114D10441F799
:10136000E114F104C9F0F701108216C0006403C053
:10137000006201C00061C401B601A701202F94DC06
:1013800004C0C401B601A701C3DD882329F4F40118
:101390008381807379F413C000FF5394F401F380C8
:1013A000F501F3FC1591F3FE11915F01112309F092
:1013B00000CF05C0552019F42FEF3FEF02C0252DB7
:1013C00030E0C901CDB7DEB7EFE01CC1E89409C039
:1013D00097FB3EF490958095709561957F4F8F4F68
:1013E0009F4F9923A9F0F92F96E9BB279395F6957E
:1013F000879577956795B795F111F8CFFAF4BB0FFC
:1014000011F460FF1BC06F5F7F4F8F4F9F4F16C05F
:10141000882311F096E911C0772321F09EE8872FE9
:10142000762F05C0662371F096E8862F70E060E0A5
:101430002AF09A95660F771F881FDAF7880F96951E
:10144000879597F908950BD078C069D028F06ED0B1
:1014500018F0952309F05AC05FC01124A2C07ED0B5
:10146000A0F3959FD1F3950F50E0551F629FF001B7
:10147000729FBB27F00DB11D639FAA27F00DB11D10
:10148000AA1F649F6627B00DA11D661F829F222799
:10149000B00DA11D621F739FB00DA11D621F839F20
:1014A000A00D611D221F749F3327A00D611D231FF6
:1014B000849F600D211D822F762F6A2F11249F5744
:1014C00050408AF0E1F088234AF0EE0FFF1FBB1F67
:1014D000661F771F881F91505040A9F79E3F510506
:1014E00070F014C05EC05F3FECF3983EDCF386956D
:1014F00077956795B795F795E7959F5FC1F7FE2BB1
:10150000880F911D9695879597F9089597F99F678C
:1015100080E870E060E008959FEF80EC089500247B
:101520000A941616170618060906089500240A9448
:1015300012161306140605060895092E0394000CCE
:1015400011F4882352F0BB0F40F4BF2B11F460FF5D
:1015500004C06F5F7F4F8F4F9F4F089557FD905886
:10156000440F551F59F05F3F71F04795880F97FB67
:10157000991F61F09F3F79F0879508951216130621
:101580001406551FF2CF4695F1DF08C01616170650
:101590001806991FF1CF8695710561050894089585
:1015A000E894BB2766277727CB0197F90895991B05
:1015B00079E004C0991F961708F0961B881F7A954A
:1015C000C9F7809508952F923F924F925F926F9244
:1015D0007F928F929F92AF92BF92CF92DF92EF92C3
:1015E000FF920F931F93CF93DF93CDB7DEB7CA1B44
:1015F000DB0B0FB6F894DEBF0FBECDBF09942A886F
:10160000398848885F846E847D848C849B84AA8416
:10161000B984C884DF80EE80FD800C811B81AA81A3
:10162000B981CE0FD11D0FB6F894DEBF0FBECDBF6E
:10163000ED010895283008F027E03327DA01990FEB
:10164000311D87FD916000966105710539F43260A6
:101650002E5F3D9330E32A95E1F708959F3F30F0E8
:1016600080387105610509F03C5F3C5F3D93913026
:1016700008F08068911DDF93CF931F930F93FF9223
:10168000EF92192F987F9695E92F96959695E90FE9
:10169000FF27EB52FF4F99273327EE24FF24A701A2
:1016A000E70105900894079428F4360FE71EF81E0A
:1016B000491F511D660F771F881F991F0694A1F7B8
:1016C0000590079428F4E70EF81E491F561FC11D08
:1016D000770F881F991F661F0694A1F7059007943E
:1016E00028F4F80E491F561FC71FD11D880F991FD8
:1016F000661F771F0694A1F70590079420F4490F01
:10170000561FC71FD81F990F661F771F881F069483
:10171000A9F784911095177041F0D695C795579504
:101720004795F794E7941A95C1F7EBE7F0E06894D2
:101730001590159135916591959105907FE273957E
:10174000E118F10A430B560BC90BD009C0F7E10CA5
:10175000F11E431F561FC91FD01D7EF4703311F4B4
:101760008A95E6CFE894015030F0080F0AF400277C
:10177000021708F4202F2395022F7A3328F079E3FB
:101780007D932A95E9F710C07D932A9589F60694F2
:1017900097956795379517951794E118F10A430BBC
:1017A000560BC90BD00998F023957E9173957A3327
:1017B00008F070E37C932013B8F77E9170617D93FD
:1017C00030F0839571E37D9370E32A95E1F711245E
:1017D000EF90FF900F911F91CF91DF91992787FD97
:1017E00090950895911136C1803219F08950855035
:1017F000D0F708959111089581548A5108F4805EBC
:10180000855A0895FC010590061621F00020D9F7AD
:10181000C00108953197CF010895FC0105906150F2
:1018200070400110D8F7809590958E0F9F1F0895F6
:10183000FC016150704001900110D8F7809590959F
:101840008E0F9F1F0895CF93DF93EC014B8140FFD4
:101850001AC046FF0AC04F7B4B838E819F81019641
:101860009F838E838A81282F2BC042FF13C0E8817B
:10187000F9818081282F332727FD309521153105E7
:1018800029F440624B832FEF3FEF1BC03196F98361
:10189000E88311C0EA85FB85CE0109959C0197FF7D
:1018A0000AC09B812F5F3F4F11F080E201C080E1B1
:1018B000892B8B83E8CF8E819F8101969F838E83B6
:1018C00030E0C901DF91CF9108950F931F93CF931B
:1018D000DF938C01EB018B8181FF1BC082FF0DC068
:1018E0002E813F818C819D812817390764F4E8811E
:1018F000F9810193F983E88306C0E885F985802F93
:101900000995892B31F48E819F8101969F838E8367
:1019100002C00FEF1FEFC801DF91CF911F910F9110
:101920000895AEE0B0E0E6E9FCE05BCE0D891E89EB
:1019300086E08C831A8309838FEF9FE79E838D83D4
:101940009E01275E3F4FCE0101966F89788DA901D8
:10195000F3D52F813885020F131FF80110822E96C0
:10196000E4E05BCE9C01FB01838180FF11C086FD1A
:101970000FC09FEF2F3F390759F0228380648F7D7E
:1019800083838681978101979783868330E002C0A5
:101990002FEF3FEFC9010895FA01AA27283051F12E
:1019A000203181F1E8946F936E7F6E5F7F4F8F4F90
:1019B0009F4FAF4FB1E03ED0B4E03CD0670F781FEF
:1019C000891F9A1FA11D680F791F8A1F911DA11DD4
:1019D0006A0F711D811D911DA11D20D009F468940D
:1019E0003F912AE0269F11243019305D3193DEF6B5
:1019F000CF010895462F4770405D4193B3E00FD06B
:101A0000C9F7F6CF462F4F70405D4A3318F0495D55
:101A100031FD4052419302D0A9F7EACFB4E0A69538
:101A20009795879577956795BA95C9F7009761055A
:101A3000710508959B01AC010A2E069457954795B0
:101A400037952795BA95C9F7620F731F841F951FA5
:0E1A5000A01D0895992788270895F894FFCFC8
:101A5E004154410041544800415444303025733BB9
:021A6E00000076
:00000001FF
